{
  "contractName": "NotesContract",
  "abi": [
    {
      "inputs": [],
      "payable": false,
      "stateMutability": "nonpayable",
      "type": "constructor"
    },
    {
      "anonymous": false,
      "inputs": [
        {
          "indexed": false,
          "internalType": "uint256",
          "name": "_id",
          "type": "uint256"
        }
      ],
      "name": "NoteAdded",
      "type": "event"
    },
    {
      "anonymous": false,
      "inputs": [
        {
          "indexed": false,
          "internalType": "uint256",
          "name": "_id",
          "type": "uint256"
        }
      ],
      "name": "NoteDeleted",
      "type": "event"
    },
    {
      "anonymous": false,
      "inputs": [
        {
          "indexed": false,
          "internalType": "uint256",
          "name": "_id",
          "type": "uint256"
        }
      ],
      "name": "NoteEdited",
      "type": "event"
    },
    {
      "constant": true,
      "inputs": [
        {
          "internalType": "uint256",
          "name": "",
          "type": "uint256"
        }
      ],
      "name": "notes",
      "outputs": [
        {
          "internalType": "uint256",
          "name": "id",
          "type": "uint256"
        },
        {
          "internalType": "string",
          "name": "noteTitle",
          "type": "string"
        },
        {
          "internalType": "string",
          "name": "noteContent",
          "type": "string"
        },
        {
          "internalType": "uint256",
          "name": "timeStamp",
          "type": "uint256"
        }
      ],
      "payable": false,
      "stateMutability": "view",
      "type": "function"
    },
    {
      "constant": true,
      "inputs": [],
      "name": "notesCount",
      "outputs": [
        {
          "internalType": "uint256",
          "name": "",
          "type": "uint256"
        }
      ],
      "payable": false,
      "stateMutability": "view",
      "type": "function"
    },
    {
      "constant": false,
      "inputs": [
        {
          "internalType": "string",
          "name": "_noteTitle",
          "type": "string"
        },
        {
          "internalType": "string",
          "name": "_noteContent",
          "type": "string"
        },
        {
          "internalType": "uint256",
          "name": "timeStamp",
          "type": "uint256"
        }
      ],
      "name": "addNote",
      "outputs": [],
      "payable": false,
      "stateMutability": "nonpayable",
      "type": "function"
    },
    {
      "constant": false,
      "inputs": [
        {
          "internalType": "uint256",
          "name": "_id",
          "type": "uint256"
        }
      ],
      "name": "deleteNote",
      "outputs": [],
      "payable": false,
      "stateMutability": "nonpayable",
      "type": "function"
    },
    {
      "constant": false,
      "inputs": [
        {
          "internalType": "uint256",
          "name": "_id",
          "type": "uint256"
        },
        {
          "internalType": "string",
          "name": "_noteTitle",
          "type": "string"
        },
        {
          "internalType": "string",
          "name": "_noteContent",
          "type": "string"
        }
      ],
      "name": "editNote",
      "outputs": [],
      "payable": false,
      "stateMutability": "nonpayable",
      "type": "function"
    }
  ],
  "bytecode": "0x608060405234801561001057600080fd5b5060008081905550610949806100276000396000f3fe608060405234801561001057600080fd5b50600436106100575760003560e01c80630700e0801461005c5780635238d5c6146101b857806361c3a7e6146103145780638544544914610435578063c47177f414610453575b600080fd5b6101b66004803603606081101561007257600080fd5b810190808035906020019064010000000081111561008f57600080fd5b8201836020820111156100a157600080fd5b803590602001918460018302840111640100000000831117156100c357600080fd5b91908080601f016020809104026020016040519081016040528093929190818152602001838380828437600081840152601f19601f8201169050808301925050505050505091929192908035906020019064010000000081111561012657600080fd5b82018360208201111561013857600080fd5b8035906020019184600183028401116401000000008311171561015a57600080fd5b91908080601f016020809104026020016040519081016040528093929190818152602001838380828437600081840152601f19601f82011690508083019250505050505050919291929080359060200190929190505050610481565b005b610312600480360360608110156101ce57600080fd5b8101908080359060200190929190803590602001906401000000008111156101f557600080fd5b82018360208201111561020757600080fd5b8035906020019184600183028401116401000000008311171561022957600080fd5b91908080601f016020809104026020016040519081016040528093929190818152602001838380828437600081840152601f19601f8201169050808301925050505050505091929192908035906020019064010000000081111561028c57600080fd5b82018360208201111561029e57600080fd5b803590602001918460018302840111640100000000831117156102c057600080fd5b91908080601f016020809104026020016040519081016040528093929190818152602001838380828437600081840152601f19601f820116905080830192505050505050509192919290505050610558565b005b6103406004803603602081101561032a57600080fd5b810190808035906020019092919050505061062f565b604051808581526020018060200180602001848152602001838103835286818151815260200191508051906020019080838360005b83811015610390578082015181840152602081019050610375565b50505050905090810190601f1680156103bd5780820380516001836020036101000a031916815260200191505b50838103825285818151815260200191508051906020019080838360005b838110156103f65780820151818401526020810190506103db565b50505050905090810190601f1680156104235780820380516001836020036101000a031916815260200191505b50965050505050505060405180910390f35b61043d61078f565b6040518082815260200191505060405180910390f35b61047f6004803603602081101561046957600080fd5b8101908080359060200190929190505050610795565b005b604051806080016040528060005481526020018481526020018381526020018281525060016000805481526020019081526020016000206000820151816000015560208201518160010190805190602001906104de929190610827565b5060408201518160020190805190602001906104fb929190610827565b50606082015181600301559050507f47845bae1c19c06fc781e2d5e8c917f9d4d91f4d7cfceda2946276046a0aa8ec6000546040518082815260200191505060405180910390a16000808154809291906001019190505550505050565b60405180608001604052808481526020018381526020018281526020016001600086815260200190815260200160002060030154815250600160008581526020019081526020016000206000820151816000015560208201518160010190805190602001906105c8929190610827565b5060408201518160020190805190602001906105e5929190610827565b50606082015181600301559050507f47845bae1c19c06fc781e2d5e8c917f9d4d91f4d7cfceda2946276046a0aa8ec836040518082815260200191505060405180910390a1505050565b6001602052806000526040600020600091509050806000015490806001018054600181600116156101000203166002900480601f0160208091040260200160405190810160405280929190818152602001828054600181600116156101000203166002900480156106e15780601f106106b6576101008083540402835291602001916106e1565b820191906000526020600020905b8154815290600101906020018083116106c457829003601f168201915b505050505090806002018054600181600116156101000203166002900480601f01602080910402602001604051908101604052809291908181526020018280546001816001161561010002031660029004801561077f5780601f106107545761010080835404028352916020019161077f565b820191906000526020600020905b81548152906001019060200180831161076257829003601f168201915b5050505050908060030154905084565b60005481565b600160008281526020019081526020016000206000808201600090556001820160006107c191906108a7565b6002820160006107d191906108a7565b600382016000905550506000808154809291906001900391905055507f89af6ba62ab348dc535a3187c267090f834c868a3820cd552a7110c3dc3eedb8816040518082815260200191505060405180910390a150565b828054600181600116156101000203166002900490600052602060002090601f016020900481019282601f1061086857805160ff1916838001178555610896565b82800160010185558215610896579182015b8281111561089557825182559160200191906001019061087a565b5b5090506108a391906108ef565b5090565b50805460018160011615610100020316600290046000825580601f106108cd57506108ec565b601f0160209004906000526020600020908101906108eb91906108ef565b5b50565b61091191905b8082111561090d5760008160009055506001016108f5565b5090565b9056fea265627a7a7231582053be65f1d34277939e0dc237e9046f3cf07b739bfb41e7aff649c0594dc4e92064736f6c63430005100032",
  "source": "// SPDX-License-Identifier: GPL-3.0\npragma solidity ^0.5.16;\n\ncontract NotesContract {\n    uint256 public notesCount;\n\n    struct Notes {\n        uint256 id;\n        string noteTitle;\n        string noteContent;\n        uint256 timeStamp;\n    }\n\n    mapping(uint256 => Notes) public notes;\n\n    event NoteAdded(uint256 _id);\n    event NoteDeleted(uint256 _id);\n    event NoteEdited(uint256 _id);\n\n    constructor() public {\n        notesCount = 0;\n    }\n\n    function addNote(\n        string memory _noteTitle,\n        string memory _noteContent,\n        uint256 timeStamp\n    ) public {\n        notes[notesCount] = Notes(\n            notesCount,\n            _noteTitle,\n            _noteContent,\n            timeStamp\n        );\n        emit NoteAdded(notesCount);\n        notesCount++;\n    }\n\n    function deleteNote(uint256 _id) public {\n        delete notes[_id];\n        notesCount--;\n        emit NoteDeleted(_id);\n    }\n\n    function editNote(\n        uint256 _id,\n        string memory _noteTitle,\n        string memory _noteContent\n    ) public {\n        notes[_id] = Notes(_id, _noteTitle, _noteContent, notes[_id].timeStamp);\n        emit NoteAdded(_id);\n    }\n}\n",
  "sourcePath": "/Users/viralsangani/Desktop/Projects/Flutter/dapps/notetaking_dapp/contracts/contracts/NotesContract.sol",
  "compiler": {
    "name": "solc",
    "version": "0.5.16+commit.9c3226ce.Emscripten.clang"
  },
  "schemaVersion": "3.4.1",
  "updatedAt": "2021-07-16T06:01:37.854Z",
  "networkType": "ethereum",
  "devdoc": {
    "methods": {}
  },
  "userdoc": {
    "methods": {}
  }
}